{
  "contractName": "Eh7SimpleMultiSig",
  "abi": [
    {
      "constant": true,
      "inputs": [],
      "name": "threshold",
      "outputs": [
        {
          "name": "",
          "type": "uint256"
        }
      ],
      "payable": false,
      "stateMutability": "view",
      "type": "function"
    },
    {
      "constant": true,
      "inputs": [
        {
          "name": "",
          "type": "uint256"
        }
      ],
      "name": "ownersArr",
      "outputs": [
        {
          "name": "",
          "type": "address"
        }
      ],
      "payable": false,
      "stateMutability": "view",
      "type": "function"
    },
    {
      "constant": true,
      "inputs": [],
      "name": "nonce",
      "outputs": [
        {
          "name": "",
          "type": "uint256"
        }
      ],
      "payable": false,
      "stateMutability": "view",
      "type": "function"
    },
    {
      "inputs": [
        {
          "name": "threshold_",
          "type": "uint256"
        },
        {
          "name": "owners_",
          "type": "address[]"
        }
      ],
      "payable": false,
      "stateMutability": "nonpayable",
      "type": "constructor"
    },
    {
      "payable": true,
      "stateMutability": "payable",
      "type": "fallback"
    },
    {
      "constant": false,
      "inputs": [
        {
          "name": "sigV",
          "type": "uint8[]"
        },
        {
          "name": "sigR",
          "type": "bytes32[]"
        },
        {
          "name": "sigS",
          "type": "bytes32[]"
        },
        {
          "name": "destination",
          "type": "address"
        },
        {
          "name": "value",
          "type": "uint256"
        },
        {
          "name": "data",
          "type": "bytes"
        }
      ],
      "name": "execute",
      "outputs": [],
      "payable": false,
      "stateMutability": "nonpayable",
      "type": "function"
    },
    {
      "constant": true,
      "inputs": [
        {
          "name": "_address",
          "type": "address"
        },
        {
          "name": "_message",
          "type": "bytes32"
        },
        {
          "name": "_v",
          "type": "uint8"
        },
        {
          "name": "_r",
          "type": "bytes32"
        },
        {
          "name": "_s",
          "type": "bytes32"
        }
      ],
      "name": "checkDataSig",
      "outputs": [
        {
          "name": "",
          "type": "address"
        }
      ],
      "payable": false,
      "stateMutability": "pure",
      "type": "function"
    },
    {
      "constant": false,
      "inputs": [
        {
          "name": "h",
          "type": "bytes32"
        },
        {
          "name": "v",
          "type": "uint8"
        },
        {
          "name": "r",
          "type": "bytes32"
        },
        {
          "name": "s",
          "type": "bytes32"
        }
      ],
      "name": "testRecovery",
      "outputs": [
        {
          "name": "",
          "type": "address"
        }
      ],
      "payable": false,
      "stateMutability": "nonpayable",
      "type": "function"
    },
    {
      "constant": false,
      "inputs": [
        {
          "name": "h",
          "type": "bytes32"
        },
        {
          "name": "v",
          "type": "uint8"
        },
        {
          "name": "r",
          "type": "bytes32"
        },
        {
          "name": "s",
          "type": "bytes32"
        }
      ],
      "name": "testRecoveryWithPrefix",
      "outputs": [
        {
          "name": "",
          "type": "bytes32"
        }
      ],
      "payable": false,
      "stateMutability": "nonpayable",
      "type": "function"
    }
  ],
  "bytecode": "0x608060405234801561001057600080fd5b50604051610b38380380610b388339810180604052810190808051906020019092919080518201929190505050600a815111158015610050575080518211155b801561005d575060008210155b151561006857600080fd5b5050610abf806100796000396000f300608060405260043610610083576000357c0100000000000000000000000000000000000000000000000000000000900463ffffffff1680630242a5fc146100855780633bf72e711461011f57806340daeb761461019557806342cde4e81461024f578063aa5df9e21461027a578063affed0e0146102e7578063f12d394f14610312575b005b34801561009157600080fd5b506100dd6004803603810190808035600019169060200190929190803560ff1690602001909291908035600019169060200190929190803560001916906020019092919050505061046e565b604051808273ffffffffffffffffffffffffffffffffffffffff1673ffffffffffffffffffffffffffffffffffffffff16815260200191505060405180910390f35b34801561012b57600080fd5b506101776004803603810190808035600019169060200190929190803560ff169060200190929190803560001916906020019092919080356000191690602001909291905050506105b1565b60405180826000191660001916815260200191505060405180910390f35b3480156101a157600080fd5b5061020d600480360381019080803573ffffffffffffffffffffffffffffffffffffffff1690602001909291908035600019169060200190929190803560ff169060200190929190803560001916906020019092919080356000191690602001909291905050506105be565b604051808273ffffffffffffffffffffffffffffffffffffffff1673ffffffffffffffffffffffffffffffffffffffff16815260200191505060405180910390f35b34801561025b57600080fd5b50610264610686565b6040518082815260200191505060405180910390f35b34801561028657600080fd5b506102a56004803603810190808035906020019092919050505061068c565b604051808273ffffffffffffffffffffffffffffffffffffffff1673ffffffffffffffffffffffffffffffffffffffff16815260200191505060405180910390f35b3480156102f357600080fd5b506102fc6106ca565b6040518082815260200191505060405180910390f35b34801561031e57600080fd5b5061046c600480360381019080803590602001908201803590602001908080602002602001604051908101604052809392919081815260200183836020028082843782019150505050505091929192908035906020019082018035906020019080806020026020016040519081016040528093929190818152602001838360200280828437820191505050505050919291929080359060200190820180359060200190808060200260200160405190810160405280939291908181526020018383602002808284378201915050505050509192919290803573ffffffffffffffffffffffffffffffffffffffff16906020019092919080359060200190929190803590602001908201803590602001908080601f01602080910402602001604051908101604052809392919081815260200183838082843782019150505050505091929192905050506106d0565b005b6000606060006040805190810160405280601c81526020017f19457468657265756d205369676e6564204d6573736167653a0a333200000000815250915081876040518083805190602001908083835b6020831015156104e357805182526020820191506020810190506020830392506104be565b6001836020036101000a03801982511681845116808217855250505050505090500182600019166000191681526020019250505060405180910390209650600187878787604051600081526020016040526040518085600019166000191681526020018460ff1660ff1681526020018360001916600019168152602001826000191660001916815260200194505050505060206040516020810390808403906000865af1158015610598573d6000803e3d6000fd5b5050506020604051035190508092505050949350505050565b6000849050949350505050565b60008060405180807f68656c6c6f210000000000000000000000000000000000000000000000000000815250600601905060405180910390209050600186868686604051600081526020016040526040518085600019166000191681526020018460ff1660ff1681526020018360001916600019168152602001826000191660001916815260200194505050505060206040516020810390808403906000865af1158015610670573d6000803e3d6000fd5b5050506020604051035191505095945050505050565b60015481565b60038181548110151561069b57fe5b906000526020600020016000915054906101000a900473ffffffffffffffffffffffffffffffffffffffff1681565b60005481565b60008060008060006001548a511415156106e957600080fd5b88518a511480156106fb57508a518a51145b151561070657600080fd5b60197f01000000000000000000000000000000000000000000000000000000000000000260007f010000000000000000000000000000000000000000000000000000000000000002308a8a8a60005460405180887effffffffffffffffffffffffffffffffffffffffffffffffffffffffffffff19167effffffffffffffffffffffffffffffffffffffffffffffffffffffffffffff19168152600101877effffffffffffffffffffffffffffffffffffffffffffffffffffffffffffff19167effffffffffffffffffffffffffffffffffffffffffffffffffffffffffffff191681526001018673ffffffffffffffffffffffffffffffffffffffff1673ffffffffffffffffffffffffffffffffffffffff166c010000000000000000000000000281526014018573ffffffffffffffffffffffffffffffffffffffff1673ffffffffffffffffffffffffffffffffffffffff166c0100000000000000000000000002815260140184815260200183805190602001908083835b6020831015156108a65780518252602082019150602081019050602083039250610881565b6001836020036101000a0380198251168184511680821785525050505050509050018281526020019750505050505050506040518091039020945060009350600092505b600154831015610a5b576001858c8581518110151561090557fe5b906020019060200201518c8681518110151561091d57fe5b906020019060200201518c8781518110151561093557fe5b90602001906020020151604051600081526020016040526040518085600019166000191681526020018460ff1660ff1681526020018360001916600019168152602001826000191660001916815260200194505050505060206040516020810390808403906000865af11580156109b0573d6000803e3d6000fd5b5050506020604051035191508373ffffffffffffffffffffffffffffffffffffffff168273ffffffffffffffffffffffffffffffffffffffff16118015610a405750600260008373ffffffffffffffffffffffffffffffffffffffff1673ffffffffffffffffffffffffffffffffffffffff16815260200190815260200160002060009054906101000a900460ff165b1515610a4b57600080fd5b81935082806001019350506108ea565b600160005401600081905550600090506000808751602089018a8c5af19050801515610a8657600080fd5b50505050505050505050505600a165627a7a72305820c440b6a27e2599382476d6c98eb4bfbc5631f65e3ce2c5c35f3097f10317cceb0029",
  "source": "pragma solidity ^0.4.22;\n\ncontract Eh7SimpleMultiSig {\n\n  uint public nonce;                 // (only) mutable state\n  uint public threshold;             // immutable state\n  mapping (address => bool) isOwner; // immutable state\n  address[] public ownersArr;        // immutable state\n\n  // Note that owners_ must be strictly increasing, in order to prevent duplicates\n  constructor(uint threshold_, address[] owners_) public {\n    require(owners_.length <= 10 && threshold_ <= owners_.length && threshold_ >= 0);\n\n/*\n    address lastAdd = address(0); \n    for (uint i = 0; i < owners_.length; i++) {\n      require(owners_[i] > lastAdd);\n      isOwner[owners_[i]] = true;\n      lastAdd = owners_[i];\n    }\n    ownersArr = owners_;\n    threshold = threshold_;\n*/\n  }\n\n  // Note that address recovered from signatures must be strictly increasing, in order to prevent duplicates\n  function execute(uint8[] sigV, bytes32[] sigR, bytes32[] sigS, address destination, uint value, bytes data) public {\n    require(sigR.length == threshold);\n    require(sigR.length == sigS.length && sigR.length == sigV.length);\n\n    // Follows ERC191 signature scheme: https://github.com/ethereum/EIPs/issues/191\n    bytes32 txHash = keccak256(byte(0x19), byte(0), this, destination, value, data, nonce);\n\n    address lastAdd = address(0); // cannot have address(0) as an owner\n    for (uint i = 0; i < threshold; i++) {\n      address recovered = ecrecover(txHash, sigV[i], sigR[i], sigS[i]);\n      require(recovered > lastAdd && isOwner[recovered]);\n      lastAdd = recovered;\n    }\n\n    // If we make it here all signatures are accounted for.\n    // The address.call() syntax is no longer recommended, see:\n    // https://github.com/ethereum/solidity/issues/2884\n    nonce = nonce + 1;\n    bool success = false;\n    assembly { success := call(gas, destination, value, add(data, 0x20), mload(data), 0, 0) }\n    require(success);\n  }\n\n//  function verify(address p, bytes32 hash, uint8 v, bytes32 r, bytes32 s) public constant returns(bool) {\n//  function checkDataSig(address p, bytes32 hash) public pure returns(bool) {\n//  function checkDataSig(address p, bytes32 hash, uint8 v, bytes32 r, bytes32 s) public pure returns(bool) {\n  function checkDataSig(address _address, bytes32 _message, uint8 _v, bytes32 _r, bytes32 _s) public pure returns(address) {\n\n     bytes32 txHash = keccak256('hello!');\n\n//     return ecrecover(_message, _v, _r, _s) == ecrecover(txHash, _v, _r, _s);\n     return ecrecover(_message, _v, _r, _s);\n\n//     return true;\n\n    // Note: this only verifies that signer is correct.\n    // You'll also need to verify that the hash of the data\n    // is also correct.\n//    return ecrecover(_message, _v, _r, _s) == _address;\n//    return true;\n//    return ecrecover(hash, v, r, s);\n//    return _address;\n//    return _message;\n//    return _v;\n//    return _r;\n//    return _s;\n  }\n\n  function testRecovery(bytes32 h, uint8 v, bytes32 r, bytes32 s) returns (address) {\n    /* prefix might be needed for geth only\n    * https://github.com/ethereum/go-ethereum/issues/3731\n    */\n    bytes memory prefix = \"\\x19Ethereum Signed Message:\\n32\";\n    h = sha3(prefix, h);\n    address addr = ecrecover(h, v, r, s);\n\n    return addr;\n  }\n\n//  function testRecoveryWithPrefix(bytes32 h, uint8 v, bytes32 r, bytes32 s) returns (address) {\n  function testRecoveryWithPrefix(bytes32 h, uint8 v, bytes32 r, bytes32 s) returns (bytes32) {\n\n    return h;\n//    return keccak256(\"\\x19Ethereum Signed Message:\\n32\");\n\n    /* prefix might be needed for geth only\n    * https://github.com/ethereum/go-ethereum/issues/3731\n    */\n/*\n    //bytes memory prefix = \"\\x19Ethereum Signed Message:\\n32\";\n    //h = sha3(prefix, h);\n    address addr = ecrecover(h, v, r, s);\n\n    return addr;\n*/\n  }\n\n  function () payable public {}\n}\n",
  "sourcePath": "/home/gavin/blockchain/simple-multisig/contracts/Eh7SimpleMultiSig.sol",
  "compiler": {
    "name": "solc",
    "version": "0.4.23+commit.124ca40d.Emscripten.clang"
  },
  "schemaVersion": "2.0.0",
  "updatedAt": "2018-11-13T10:17:32.149Z"
}