{
  "contractName": "TestRegistry",
  "abi": [
    {
      "constant": true,
      "inputs": [
        {
          "name": "",
          "type": "address"
        }
      ],
      "name": "registry",
      "outputs": [
        {
          "name": "",
          "type": "uint256"
        }
      ],
      "payable": false,
      "stateMutability": "view",
      "type": "function"
    },
    {
      "constant": false,
      "inputs": [
        {
          "name": "x",
          "type": "uint256"
        }
      ],
      "name": "register",
      "outputs": [],
      "payable": true,
      "stateMutability": "payable",
      "type": "function"
    }
  ],
  "bytecode": "0x608060405234801561001057600080fd5b50610152806100206000396000f30060806040526004361061004c576000357c0100000000000000000000000000000000000000000000000000000000900463ffffffff168063038defd714610051578063f207564e146100a8575b600080fd5b34801561005d57600080fd5b50610092600480360381019080803573ffffffffffffffffffffffffffffffffffffffff1690602001909291905050506100c8565b6040518082815260200191505060405180910390f35b6100c6600480360381019080803590602001909291905050506100e0565b005b60006020528060005260406000206000915090505481565b806000803373ffffffffffffffffffffffffffffffffffffffff1673ffffffffffffffffffffffffffffffffffffffff16815260200190815260200160002081905550505600a165627a7a72305820926f2ccf07f5e0232cc209b8ee489353c2578b7893b8979be1eadd5e6a74af4d0029",
  "source": "pragma solidity ^0.4.18;\n\n// This contract is only used for testing purposes.\ncontract TestRegistry {\n\n  mapping(address => uint) public registry;\n\n  function register(uint x) payable public {\n    registry[msg.sender] = x;\n  }\n\n}\n",
  "sourcePath": "/home/gavin/blockchain/simple-multisig/contracts/TestRegistry.sol",
  "compiler": {
    "name": "solc",
    "version": "0.4.23+commit.124ca40d.Emscripten.clang"
  },
  "schemaVersion": "2.0.0",
  "updatedAt": "2018-11-08T11:18:34.045Z"
}